:020000040800F2
:1000000000000120C9050008510500085705000837
:100010005D05000863050008690500080000000090
:100020000000000000000000000000006F05000854
:100030007D050008000000008B05000899050008F8
:100040001906000819060008190600081906000814
:100050001906000819060008090500081906000815
:1000600019060008190600081906000819060008F4
:1000700019060008190600081906000819060008E4
:1000800019060008190600081906000800000000FB
:100090000000000000000000000000001906000839
:1000A00019060008190600081906000819060008B4
:1000B00019060008190600081906000819060008A4
:1000C0001906000819060008190600081906000894
:1000D00019060008190600081906000800000000AB
:1000E000190600081906000819060008000000009B
:1000F00000000000000000000000000019060008D9
:10010000000000001906000819060008190600087A
:1001100000000000000000000000000000000000DF
:100120001906000819060008190600081906000833
:100130001906000800000000000000000000000098
:100140000000000000000000000000001906000888
:100150001906000819060008190600081906000803
:100160001906000819060008000000000000000041
:10017000000000000000000000000000000000007F
:100180000000000019060008000000000000000048
:040190001906000844
:1001940010B5054C237833B9044B13B10448AFF3BD
:1001A40000800123237010BD5400002000000000D3
:1001B4008C06000808B5034B1BB103490348AFF391
:1001C400008008BD00000000580000208C060008D4
:1001D40090B482B000AF0446084611461A4623463E
:1001E400FB710346BB710B467B7113463B715C4B41
:1001F4001B68FA79012101FA02F21146584A0B43AD
:100204001360FA79574913469B001344DB000B44EF
:100214001B681968BB795B00032202FA03F3DB4312
:100224001C46FA794F4813469B001344DB000344F1
:100234001B6801EA04021A60FA794A4913469B00D2
:100244001344DB000B441B6819687A79BB795B00A3
:1002540002FA03F31C46FA79424813469B001344FE
:10026400DB0003441B6841EA04021A60FA793D4941
:1002740013469B001344DB000B4404331B681968CA
:10028400BB79012202FA03F3DB431C46FA793548B1
:1002940013469B001344DB00034404331B6801EA48
:1002A40004021A60FA792F4913469B001344DB00B9
:1002B4000B4404331B6819683B7903F00102BB79D2
:1002C40002FA03F31C46FA79264813469B001344AA
:1002D400DB00034404331B6841EA04021A60FA7920
:1002E400204913469B001344DB000B440C331B686A
:1002F4001968BB795B00032202FA03F3DB431C4653
:10030400FA79184813469B001344DB0003440C336A
:100314001B6801EA04021A60FA79124913469B0029
:100324001344DB000B440C331B6819683B795B10E6
:1003340003F00302BB795B0002FA03F31C46FA796B
:10034400084813469B001344DB0003440C331B682A
:1003540041EA04021A6000BF0837BD4690BC7047EA
:10036400303802400000002090B484B000AF03464F
:10037400FB710B46BB7113467B71FA792C4913460A
:100384009B001344DB000B441B681B68BA795200C2
:10039400032101FA02F21A40BB795B0022FA03F34B
:1003A400012B3DD17B79002B1BD0FA7920491346D0
:1003B4009B001344DB000B4414331B681968BB799E
:1003C400012202FA03F31C46FA79194813469B00EA
:1003D4001344DB00034414331B6841EA04021A602B
:1003E4001BE0FA79124913469B001344DB000B44CB
:1003F40014331B681968BB79012202FA03F3DB4347
:100404001C46FA790A4813469B001344DB00034454
:1004140014331B6801EA04021A600023FB7301E031
:100424000123FB73FB7B18461037BD4690BC704715
:100434000000002080B485B000AF03460A46FB717B
:100444001346BB710023FB73FA790C4913469B00D6
:100454001344DB000B4410331B681B68BA79012179
:1004640001FA02F21A40BB7922FA03F3FB73FB7B15
:1004740018461437BD465DF8047B70470000002021
:1004840080B582B000AF0023FB710023BB71002351
:100494007B7101233B717979F87902230022FFF7FC
:1004A40097FE3979B87900230122FFF791FE0F4BAB
:1004B4001B680E4A43F4804313600D4B0C4A1B68BF
:1004C40013600C4B1B680B4A43F0010313600A4B87
:1004D4001B68094A43F001031360084B074A1B6871
:1004E4001360074B40221A60FEE700BF4438024005
:1004F40008380140003C01400C3C0140083C0140EC
:1005040000E100E080B582B000AF0023FB7101235D
:10051400BB71BA79FB7911461846FFF78BFF034686
:10052400002B0CBF01230023DBB27B717A79B979EC
:10053400FB791846FFF718FF034B01221A6000BF2E
:100544000837BD4680BD00BF143C014080B400AFF5
:10055400FEE780B400AFFEE780B400AFFEE780B4EE
:1005640000AFFEE780B400AFFEE780B400AF00BF89
:10057400BD465DF8047B704780B400AF00BFBD4644
:100584005DF8047B704780B400AF00BFBD465DF8E2
:10059400047B704780B500AF00F03EF800BF80BD1B
:1005A40080B400AF064BD3F88830054A43F4700397
:1005B400C2F8883000BFBD465DF8047B704700BFB9
:1005C40000ED00E0DFF834D00D480E490E4A002358
:1005D40002E0D458C4500433C4188C42F9D30B4AF3
:1005E4000B4C002301E013600432A242FBD3FFF75B
:1005F400D7FF00F025F8FFF743FF70470000012004
:100604000000002054000020AC0600085400002024
:1006140074000020FEE7000080B400AF064B1B7896
:100624001A46064B1B681344044A136000BFBD46B8
:100634005DF8047B704700BF50000020700000206C
:1006440070B50D4D0D4C641BA4100026A64209D1B3
:100654000B4D0C4C00F018F8641BA4100026A642A5
:1006640005D170BD55F8043B98470136EEE755F8BF
:10067400043B98470136F2E7A4060008A4060008E4
:10068400A4060008A8060008F8B500BFF8BC08BC1A
:100694009E467047F8B500BFF8BC08BC9E4670473C
:0406A400B901000890
:0406A80095010008B0
:1006AC000000024004000240080002400C0002401E
:1006BC001000024014000240180002401C000240CE
:1006CC0020000240240002400004024004040240C6
:1006DC00080402400C0402401004024014040240BE
:1006EC00180402401C04024020040240240402406E
:0406FC0001000000F9
:04000005080005C921
:00000001FF
